{"abi":[{"type":"constructor","inputs":[],"stateMutability":"nonpayable"},{"type":"function","name":"_historyIndex","inputs":[],"outputs":[{"name":"","type":"uint256","internalType":"uint256"}],"stateMutability":"view"},{"type":"function","name":"getAllHistory","inputs":[],"outputs":[{"name":"","type":"tuple[]","internalType":"struct CustomDex.History[]","components":[{"name":"historyId","type":"uint256","internalType":"uint256"},{"name":"tokenA","type":"string","internalType":"string"},{"name":"tokenB","type":"string","internalType":"string"},{"name":"inputValue","type":"uint256","internalType":"uint256"},{"name":"outputValue","type":"uint256","internalType":"uint256"},{"name":"userAddress","type":"address","internalType":"address"}]}],"stateMutability":"view"},{"type":"function","name":"getBalance","inputs":[{"name":"tokenName","type":"string","internalType":"string"},{"name":"_address","type":"address","internalType":"address"}],"outputs":[{"name":"","type":"uint256","internalType":"uint256"}],"stateMutability":"view"},{"type":"function","name":"getEthBalance","inputs":[],"outputs":[{"name":"","type":"uint256","internalType":"uint256"}],"stateMutability":"view"},{"type":"function","name":"getTokenAddress","inputs":[{"name":"tokenName","type":"string","internalType":"string"}],"outputs":[{"name":"","type":"address","internalType":"address"}],"stateMutability":"view"},{"type":"function","name":"getTokenName","inputs":[{"name":"tokenName","type":"string","internalType":"string"}],"outputs":[{"name":"","type":"string","internalType":"string"}],"stateMutability":"view"},{"type":"function","name":"getTotalSupply","inputs":[{"name":"tokenName","type":"string","internalType":"string"}],"outputs":[{"name":"","type":"uint256","internalType":"uint256"}],"stateMutability":"view"},{"type":"function","name":"swapEthToToken","inputs":[{"name":"tokenName","type":"string","internalType":"string"}],"outputs":[{"name":"","type":"uint256","internalType":"uint256"}],"stateMutability":"payable"},{"type":"function","name":"tokenInstanceMap","inputs":[{"name":"","type":"string","internalType":"string"}],"outputs":[{"name":"","type":"address","internalType":"contract ERC20"}],"stateMutability":"view"},{"type":"function","name":"tokens","inputs":[{"name":"","type":"uint256","internalType":"uint256"}],"outputs":[{"name":"","type":"string","internalType":"string"}],"stateMutability":"view"}],"bytecode":{"object":"0x600a6101809081526915195d1a195c881554d160b21b6101a052608090815260036101c09081526221272160e91b6101e05260a0526008610200818152672aa9a21021b7b4b760c11b6102205260c0526005610240908152640e6e88ae8d60db1b6102605260e0526004610280908152632a2927a760e11b6102a05261010052600b6102c09081526a26b0ba34b1902a37b5b2b760a91b6102e05261012052600961030090815268534849424120494e5560b81b61032052610140526103806040526007610340908152660556e69737761760cc1b6103605261016052620000ea9160009162000201565b5067016345785d8a00006002553480156200010457600080fd5b5060005b600054811015620001fa5760008082815481106200012a576200012a620002e6565b90600052602060002001600083815481106200014a576200014a620002e6565b9060005260206000200160405162000162906200025e565b6200016f929190620003bd565b604051809103906000f0801580156200018c573d6000803e3d6000fd5b50905080600160008481548110620001a857620001a8620002e6565b90600052602060002001604051620001c19190620003ef565b90815260405190819003602001902080546001600160a01b03929092166001600160a01b03199092169190911790555060010162000108565b50620005a4565b8280548282559060005260206000209081019282156200024c579160200282015b828111156200024c57825182906200023b9082620004d8565b509160200191906001019062000222565b506200025a9291506200026c565b5090565b610bd8806200138c83390190565b808211156200025a5760006200028382826200028d565b506001016200026c565b5080546200029b90620002fc565b6000825580601f10620002ac575050565b601f016020900490600052602060002090810190620002cc9190620002cf565b50565b5b808211156200025a5760008155600101620002d0565b634e487b7160e01b600052603260045260246000fd5b600181811c908216806200031157607f821691505b6020821081036200033257634e487b7160e01b600052602260045260246000fd5b50919050565b600081546200034781620002fc565b8085526020600183811680156200036757600181146200038257620003b2565b60ff1985168884015283151560051b880183019550620003b2565b866000528260002060005b85811015620003aa5781548a82018601529083019084016200038d565b890184019650505b505050505092915050565b604081526000620003d2604083018562000338565b8281036020840152620003e6818562000338565b95945050505050565b6000808354620003ff81620002fc565b600182811680156200041a5760018114620004305762000461565b60ff198416875282151583028701945062000461565b8760005260208060002060005b85811015620004585781548a8201529084019082016200043d565b50505082870194505b50929695505050505050565b634e487b7160e01b600052604160045260246000fd5b601f821115620004d3576000816000526020600020601f850160051c81016020861015620004ae5750805b601f850160051c820191505b81811015620004cf57828155600101620004ba565b5050505b505050565b81516001600160401b03811115620004f457620004f46200046d565b6200050c81620005058454620002fc565b8462000483565b602080601f8311600181146200054457600084156200052b5750858301515b600019600386901b1c1916600185901b178555620004cf565b600085815260208120601f198616915b82811015620005755788860151825594840194600190910190840162000554565b5085821015620005945787850151600019600388901b60f8161c191681555b5050505050600190811b01905550565b610dd880620005b46000396000f3fe6080604052600436106100915760003560e01c806370ed0ada1161005957806370ed0ada1461014157806389f4b317146101545780638cd93e8c14610174578063a93325ed14610194578063c4091236146101ed57600080fd5b806319b3c12d1461009657806339c5891a146100bf5780634f64b2be146100e15780635463109e1461010e57806363fcf7c51461012e575b600080fd5b3480156100a257600080fd5b506100ac60035481565b6040519081526020015b60405180910390f35b3480156100cb57600080fd5b506100d461020d565b6040516100b691906108b2565b3480156100ed57600080fd5b506101016100fc36600461096c565b610461565b6040516100b69190610985565b34801561011a57600080fd5b506100ac610129366004610a5d565b61050d565b6100ac61013c366004610a5d565b610598565b34801561014d57600080fd5b50476100ac565b34801561016057600080fd5b506100ac61016f366004610a9a565b6106bb565b34801561018057600080fd5b5061010161018f366004610a5d565b61074a565b3480156101a057600080fd5b506101d56101af366004610a5d565b80516020818301810180516001825292820191909301209152546001600160a01b031681565b6040516001600160a01b0390911681526020016100b6565b3480156101f957600080fd5b506101d5610208366004610a5d565b6107d7565b60035460609060008167ffffffffffffffff81111561022e5761022e610998565b6040519080825280602002602001820160405280156102a157816020015b61028e6040518060c00160405280600081526020016060815260200160608152602001600081526020016000815260200160006001600160a01b031681525090565b81526020019060019003908161024c5790505b50905060005b8281101561045a5760006102bc826001610b0e565b9050600460008281526020019081526020016000206040518060c0016040529081600082015481526020016001820180546102f690610b21565b80601f016020809104026020016040519081016040528092919081815260200182805461032290610b21565b801561036f5780601f106103445761010080835404028352916020019161036f565b820191906000526020600020905b81548152906001019060200180831161035257829003601f168201915b5050505050815260200160028201805461038890610b21565b80601f01602080910402602001604051908101604052809291908181526020018280546103b490610b21565b80156104015780601f106103d657610100808354040283529160200191610401565b820191906000526020600020905b8154815290600101906020018083116103e457829003601f168201915b505050918352505060038201546020820152600482015460408201526005909101546001600160a01b0316606090910152835184908490811061044657610446610b5b565b6020908102919091010152506001016102a7565b5092915050565b6000818154811061047157600080fd5b90600052602060002001600091509050805461048c90610b21565b80601f01602080910402602001604051908101604052809291908181526020018280546104b890610b21565b80156105055780601f106104da57610100808354040283529160200191610505565b820191906000526020600020905b8154815290600101906020018083116104e857829003601f168201915b505050505081565b600060018260405161051f9190610b71565b9081526040805160209281900383018120546318160ddd60e01b825291516001600160a01b03909216926318160ddd926004808401938290030181865afa15801561056e573d6000803e3d6000fd5b505050506040513d601f19601f820116820180604052508101906105929190610b8d565b92915050565b600254600090349082906105ac9083610ba6565b6105be90670de0b6b3a7640000610bc8565b90506001846040516105d09190610b71565b9081526040519081900360200181205463a9059cbb60e01b8252336004830152602482018390526001600160a01b03169063a9059cbb906044016020604051808303816000875af1158015610629573d6000803e3d6000fd5b505050506040513d601f19601f8201168201806040525081019061064d9190610bdf565b61068b5760405162461bcd60e51b815260206004820152600b60248201526a14ddd85c0811985a5b195960aa1b604482015260640160405180910390fd5b60408051808201909152600581526422ba3432b960d91b60208201526106b385828585610808565b509392505050565b60006001836040516106cd9190610b71565b908152604051908190036020018120546370a0823160e01b82526001600160a01b03848116600484015216906370a0823190602401602060405180830381865afa15801561071f573d6000803e3d6000fd5b505050506040513d601f19601f820116820180604052508101906107439190610b8d565b9392505050565b606060018260405161075c9190610b71565b90815260408051918290036020018220546306fdde0360e01b835290516001600160a01b03909116916306fdde039160048083019260009291908290030181865afa1580156107af573d6000803e3d6000fd5b505050506040513d6000823e601f3d908101601f191682016040526105929190810190610c01565b60006001826040516107e99190610b71565b908152604051908190036020019020546001600160a01b031692915050565b6003805490600061081883610c78565b909155505060035460008181526004602052604090208181556001810161083f8782610ce2565b506002810161084e8682610ce2565b506003810193909355506004909101555050565b60005b8381101561087d578181015183820152602001610865565b50506000910152565b6000815180845261089e816020860160208601610862565b601f01601f19169290920160200192915050565b600060208083018184528085518083526040925060408601915060408160051b87010184880160005b8381101561095e57603f19898403018552815160c08151855288820151818a87015261090982870182610886565b91505087820151858203898701526109218282610886565b606084810151908801526080808501519088015260a0938401516001600160a01b03169390960192909252505093860193908601906001016108db565b509098975050505050505050565b60006020828403121561097e57600080fd5b5035919050565b6020815260006107436020830184610886565b634e487b7160e01b600052604160045260246000fd5b604051601f8201601f1916810167ffffffffffffffff811182821017156109d7576109d7610998565b604052919050565b600067ffffffffffffffff8211156109f9576109f9610998565b50601f01601f191660200190565b600082601f830112610a1857600080fd5b8135610a2b610a26826109df565b6109ae565b818152846020838601011115610a4057600080fd5b816020850160208301376000918101602001919091529392505050565b600060208284031215610a6f57600080fd5b813567ffffffffffffffff811115610a8657600080fd5b610a9284828501610a07565b949350505050565b60008060408385031215610aad57600080fd5b823567ffffffffffffffff811115610ac457600080fd5b610ad085828601610a07565b92505060208301356001600160a01b0381168114610aed57600080fd5b809150509250929050565b634e487b7160e01b600052601160045260246000fd5b8082018082111561059257610592610af8565b600181811c90821680610b3557607f821691505b602082108103610b5557634e487b7160e01b600052602260045260246000fd5b50919050565b634e487b7160e01b600052603260045260246000fd5b60008251610b83818460208701610862565b9190910192915050565b600060208284031215610b9f57600080fd5b5051919050565b600082610bc357634e487b7160e01b600052601260045260246000fd5b500490565b808202811582820484141761059257610592610af8565b600060208284031215610bf157600080fd5b8151801515811461074357600080fd5b600060208284031215610c1357600080fd5b815167ffffffffffffffff811115610c2a57600080fd5b8201601f81018413610c3b57600080fd5b8051610c49610a26826109df565b818152856020838501011115610c5e57600080fd5b610c6f826020830160208601610862565b95945050505050565b600060018201610c8a57610c8a610af8565b5060010190565b601f821115610cdd576000816000526020600020601f850160051c81016020861015610cba5750805b601f850160051c820191505b81811015610cd957828155600101610cc6565b5050505b505050565b815167ffffffffffffffff811115610cfc57610cfc610998565b610d1081610d0a8454610b21565b84610c91565b602080601f831160018114610d455760008415610d2d5750858301515b600019600386901b1c1916600185901b178555610cd9565b600085815260208120601f198616915b82811015610d7457888601518255948401946001909101908401610d55565b5085821015610d925787850151600019600388901b60f8161c191681555b5050505050600190811b0190555056fea2646970667358221220fc6f5cb380a60c43a799cfc104e961b50d1ffed5d4ac2f02a7424c02784e51a764736f6c6343000817003360806040523480156200001157600080fd5b5060405162000bd838038062000bd88339810160408190526200003491620002b8565b81816003620000448382620003b3565b506004620000538282620003b3565b50505062000073336a084595161401484a0000006200007b60201b60201c565b5050620004a7565b6001600160a01b038216620000ab5760405163ec442f0560e01b8152600060048201526024015b60405180910390fd5b620000b960008383620000bd565b5050565b6001600160a01b038316620000ec578060026000828254620000e091906200047f565b90915550620001609050565b6001600160a01b03831660009081526020819052604090205481811015620001415760405163391434e360e21b81526001600160a01b03851660048201526024810182905260448101839052606401620000a2565b6001600160a01b03841660009081526020819052604090209082900390555b6001600160a01b0382166200017e576002805482900390556200019d565b6001600160a01b03821660009081526020819052604090208054820190555b816001600160a01b0316836001600160a01b03167fddf252ad1be2c89b69c2b068fc378daa952ba7f163c4a11628f55a4df523b3ef83604051620001e391815260200190565b60405180910390a3505050565b634e487b7160e01b600052604160045260246000fd5b600082601f8301126200021857600080fd5b81516001600160401b0380821115620002355762000235620001f0565b604051601f8301601f19908116603f01168101908282118183101715620002605762000260620001f0565b81604052838152602092508660208588010111156200027e57600080fd5b600091505b83821015620002a2578582018301518183018401529082019062000283565b6000602085830101528094505050505092915050565b60008060408385031215620002cc57600080fd5b82516001600160401b0380821115620002e457600080fd5b620002f28683870162000206565b935060208501519150808211156200030957600080fd5b50620003188582860162000206565b9150509250929050565b600181811c908216806200033757607f821691505b6020821081036200035857634e487b7160e01b600052602260045260246000fd5b50919050565b601f821115620003ae576000816000526020600020601f850160051c81016020861015620003895750805b601f850160051c820191505b81811015620003aa5782815560010162000395565b5050505b505050565b81516001600160401b03811115620003cf57620003cf620001f0565b620003e781620003e0845462000322565b846200035e565b602080601f8311600181146200041f5760008415620004065750858301515b600019600386901b1c1916600185901b178555620003aa565b600085815260208120601f198616915b8281101562000450578886015182559484019460019091019084016200042f565b50858210156200046f5787850151600019600388901b60f8161c191681555b5050505050600190811b01905550565b80820180821115620004a157634e487b7160e01b600052601160045260246000fd5b92915050565b61072180620004b76000396000f3fe608060405234801561001057600080fd5b50600436106100935760003560e01c8063313ce56711610066578063313ce567146100fe57806370a082311461010d57806395d89b4114610136578063a9059cbb1461013e578063dd62ed3e1461015157600080fd5b806306fdde0314610098578063095ea7b3146100b657806318160ddd146100d957806323b872dd146100eb575b600080fd5b6100a061018a565b6040516100ad919061056a565b60405180910390f35b6100c96100c43660046105d5565b61021c565b60405190151581526020016100ad565b6002545b6040519081526020016100ad565b6100c96100f93660046105ff565b610236565b604051601281526020016100ad565b6100dd61011b36600461063b565b6001600160a01b031660009081526020819052604090205490565b6100a061025a565b6100c961014c3660046105d5565b610269565b6100dd61015f36600461065d565b6001600160a01b03918216600090815260016020908152604080832093909416825291909152205490565b60606003805461019990610690565b80601f01602080910402602001604051908101604052809291908181526020018280546101c590610690565b80156102125780601f106101e757610100808354040283529160200191610212565b820191906000526020600020905b8154815290600101906020018083116101f557829003601f168201915b5050505050905090565b60003361022a818585610277565b60019150505b92915050565b600033610244858285610289565b61024f85858561030c565b506001949350505050565b60606004805461019990610690565b60003361022a81858561030c565b610284838383600161036b565b505050565b6001600160a01b03838116600090815260016020908152604080832093861683529290522054600019811461030657818110156102f757604051637dc7a0d960e11b81526001600160a01b038416600482015260248101829052604481018390526064015b60405180910390fd5b6103068484848403600061036b565b50505050565b6001600160a01b03831661033657604051634b637e8f60e11b8152600060048201526024016102ee565b6001600160a01b0382166103605760405163ec442f0560e01b8152600060048201526024016102ee565b610284838383610440565b6001600160a01b0384166103955760405163e602df0560e01b8152600060048201526024016102ee565b6001600160a01b0383166103bf57604051634a1406b160e11b8152600060048201526024016102ee565b6001600160a01b038085166000908152600160209081526040808320938716835292905220829055801561030657826001600160a01b0316846001600160a01b03167f8c5be1e5ebec7d5bd14f71427d1e84f3dd0314c0f7b2291e5b200ac8c7c3b9258460405161043291815260200190565b60405180910390a350505050565b6001600160a01b03831661046b57806002600082825461046091906106ca565b909155506104dd9050565b6001600160a01b038316600090815260208190526040902054818110156104be5760405163391434e360e21b81526001600160a01b038516600482015260248101829052604481018390526064016102ee565b6001600160a01b03841660009081526020819052604090209082900390555b6001600160a01b0382166104f957600280548290039055610518565b6001600160a01b03821660009081526020819052604090208054820190555b816001600160a01b0316836001600160a01b03167fddf252ad1be2c89b69c2b068fc378daa952ba7f163c4a11628f55a4df523b3ef8360405161055d91815260200190565b60405180910390a3505050565b60006020808352835180602085015260005b818110156105985785810183015185820160400152820161057c565b506000604082860101526040601f19601f8301168501019250505092915050565b80356001600160a01b03811681146105d057600080fd5b919050565b600080604083850312156105e857600080fd5b6105f1836105b9565b946020939093013593505050565b60008060006060848603121561061457600080fd5b61061d846105b9565b925061062b602085016105b9565b9150604084013590509250925092565b60006020828403121561064d57600080fd5b610656826105b9565b9392505050565b6000806040838503121561067057600080fd5b610679836105b9565b9150610687602084016105b9565b90509250929050565b600181811c908216806106a457607f821691505b6020821081036106c457634e487b7160e01b600052602260045260246000fd5b50919050565b8082018082111561023057634e487b7160e01b600052601160045260246000fdfea2646970667358221220a248aebf3259084e50390291cfc751e6b251707e2d17743391894ee09ae67d1e64736f6c63430008170033","linkReferences":{}},"methodIdentifiers":{"_historyIndex()":"19b3c12d","getAllHistory()":"39c5891a","getBalance(string,address)":"89f4b317","getEthBalance()":"70ed0ada","getTokenAddress(string)":"c4091236","getTokenName(string)":"8cd93e8c","getTotalSupply(string)":"5463109e","swapEthToToken(string)":"63fcf7c5","tokenInstanceMap(string)":"a93325ed","tokens(uint256)":"4f64b2be"},"id":29}